{
  "contractName": "PandemicRecoverySystem",
  "abi": [
    {
      "anonymous": false,
      "inputs": [
        {
          "indexed": false,
          "internalType": "string",
          "name": "Pname",
          "type": "string"
        },
        {
          "indexed": false,
          "internalType": "uint16",
          "name": "age",
          "type": "uint16"
        },
        {
          "indexed": false,
          "internalType": "string",
          "name": "symptom",
          "type": "string"
        }
      ],
      "name": "PatientDetails",
      "type": "event"
    },
    {
      "anonymous": false,
      "inputs": [
        {
          "indexed": false,
          "internalType": "string",
          "name": "Rname",
          "type": "string"
        },
        {
          "indexed": false,
          "internalType": "string",
          "name": "Symptoms",
          "type": "string"
        },
        {
          "indexed": false,
          "internalType": "string",
          "name": "HospitalName",
          "type": "string"
        },
        {
          "indexed": false,
          "internalType": "string",
          "name": "HospitalLocation",
          "type": "string"
        },
        {
          "indexed": false,
          "internalType": "uint256",
          "name": "DaysForRecovery",
          "type": "uint256"
        },
        {
          "indexed": false,
          "internalType": "string",
          "name": "TestUndergone",
          "type": "string"
        },
        {
          "indexed": false,
          "internalType": "uint16",
          "name": "AmtSpent",
          "type": "uint16"
        },
        {
          "indexed": false,
          "internalType": "string",
          "name": "MedicationsTaken",
          "type": "string"
        }
      ],
      "name": "RecovererDetails",
      "type": "event"
    },
    {
      "inputs": [
        {
          "internalType": "address",
          "name": "",
          "type": "address"
        }
      ],
      "name": "patients",
      "outputs": [
        {
          "internalType": "string",
          "name": "Pname",
          "type": "string"
        },
        {
          "internalType": "uint16",
          "name": "age",
          "type": "uint16"
        },
        {
          "internalType": "string",
          "name": "symptom",
          "type": "string"
        }
      ],
      "stateMutability": "view",
      "type": "function"
    },
    {
      "inputs": [
        {
          "internalType": "address",
          "name": "",
          "type": "address"
        }
      ],
      "name": "recoverers",
      "outputs": [
        {
          "internalType": "string",
          "name": "Rname",
          "type": "string"
        },
        {
          "internalType": "string",
          "name": "Symptoms",
          "type": "string"
        },
        {
          "internalType": "string",
          "name": "HospitalName",
          "type": "string"
        },
        {
          "internalType": "string",
          "name": "HospitalLocation",
          "type": "string"
        },
        {
          "internalType": "uint16",
          "name": "DaysForRecovery",
          "type": "uint16"
        },
        {
          "internalType": "string",
          "name": "TestUndergone",
          "type": "string"
        },
        {
          "internalType": "uint16",
          "name": "AmtSpent",
          "type": "uint16"
        },
        {
          "internalType": "string",
          "name": "MedicationsTaken",
          "type": "string"
        }
      ],
      "stateMutability": "view",
      "type": "function"
    },
    {
      "inputs": [
        {
          "internalType": "string",
          "name": "_Pname",
          "type": "string"
        },
        {
          "internalType": "uint16",
          "name": "_age",
          "type": "uint16"
        },
        {
          "internalType": "string",
          "name": "_symptom",
          "type": "string"
        }
      ],
      "name": "FillPatientDetails",
      "outputs": [],
      "stateMutability": "nonpayable",
      "type": "function"
    },
    {
      "inputs": [
        {
          "internalType": "address",
          "name": "_patientaddress",
          "type": "address"
        }
      ],
      "name": "GetPatientSymptom",
      "outputs": [
        {
          "internalType": "string",
          "name": "",
          "type": "string"
        }
      ],
      "stateMutability": "view",
      "type": "function"
    },
    {
      "inputs": [
        {
          "internalType": "address",
          "name": "_patientaddress",
          "type": "address"
        }
      ],
      "name": "PatientAddress",
      "outputs": [
        {
          "internalType": "bool",
          "name": "",
          "type": "bool"
        }
      ],
      "stateMutability": "nonpayable",
      "type": "function"
    },
    {
      "inputs": [
        {
          "internalType": "string",
          "name": "_Rname",
          "type": "string"
        },
        {
          "internalType": "string",
          "name": "_Symptom",
          "type": "string"
        },
        {
          "internalType": "string",
          "name": "_HospitalName",
          "type": "string"
        },
        {
          "internalType": "string",
          "name": "_HospitalLocation",
          "type": "string"
        },
        {
          "internalType": "uint16",
          "name": "_DaysForRecovery",
          "type": "uint16"
        },
        {
          "internalType": "string",
          "name": "_TestUndergone",
          "type": "string"
        },
        {
          "internalType": "uint16",
          "name": "_AmtSpent",
          "type": "uint16"
        },
        {
          "internalType": "string",
          "name": "_MedicationsTaken",
          "type": "string"
        }
      ],
      "name": "FillRecovererDetails",
      "outputs": [],
      "stateMutability": "nonpayable",
      "type": "function"
    },
    {
      "inputs": [
        {
          "internalType": "address",
          "name": "_RecovererAddress",
          "type": "address"
        }
      ],
      "name": "GetRecovererSymptom",
      "outputs": [
        {
          "internalType": "string",
          "name": "",
          "type": "string"
        }
      ],
      "stateMutability": "view",
      "type": "function"
    },
    {
      "inputs": [
        {
          "internalType": "address",
          "name": "_RecovererAddress",
          "type": "address"
        }
      ],
      "name": "RecovererAddressIs",
      "outputs": [
        {
          "internalType": "bool",
          "name": "",
          "type": "bool"
        }
      ],
      "stateMutability": "nonpayable",
      "type": "function"
    },
    {
      "inputs": [
        {
          "internalType": "string",
          "name": "_symptom",
          "type": "string"
        }
      ],
      "name": "HowToRecoverDetails",
      "outputs": [
        {
          "components": [
            {
              "internalType": "string",
              "name": "Rname",
              "type": "string"
            },
            {
              "internalType": "string",
              "name": "Symptoms",
              "type": "string"
            },
            {
              "internalType": "string",
              "name": "HospitalName",
              "type": "string"
            },
            {
              "internalType": "string",
              "name": "HospitalLocation",
              "type": "string"
            },
            {
              "internalType": "uint16",
              "name": "DaysForRecovery",
              "type": "uint16"
            },
            {
              "internalType": "string",
              "name": "TestUndergone",
              "type": "string"
            },
            {
              "internalType": "uint16",
              "name": "AmtSpent",
              "type": "uint16"
            },
            {
              "internalType": "string",
              "name": "MedicationsTaken",
              "type": "string"
            }
          ],
          "internalType": "struct PandemicRecoverySystem.Recoverer",
          "name": "",
          "type": "tuple"
        }
      ],
      "stateMutability": "view",
      "type": "function"
    }
  ],
  "bytecode": "0x608060405234801561001057600080fd5b50611b9a806100206000396000f3fe608060405234801561001057600080fd5b50600436106100935760003560e01c8063be29d3a811610066578063be29d3a81461015a578063d7d2c94714610176578063de816de414610192578063e95b5533146101c9578063f5dafbe3146101f957610093565b80630869cfbc1461009857806344f1d737146100ca578063510bd42e146100fa578063735e8ca81461012a575b600080fd5b6100b260048036038101906100ad919061129a565b610229565b6040516100c1939291906117f3565b60405180910390f35b6100e460048036038101906100df919061129a565b610371565b6040516100f1919061170e565b60405180910390f35b610114600480360381019061010f919061129a565b610411565b604051610121919061170e565b60405180910390f35b610144600480360381019061013f91906112c3565b6104da565b6040516101519190611925565b60405180910390f35b610174600480360381019061016f9190611446565b610924565b005b610190600480360381019061018b9190611304565b6109ec565b005b6101ac60048036038101906101a7919061129a565b610bd1565b6040516101c098979695949392919061174b565b60405180910390f35b6101e360048036038101906101de919061129a565b610f65565b6040516101f09190611729565b60405180910390f35b610213600480360381019061020e919061129a565b61103f565b6040516102209190611729565b60405180910390f35b600060205280600052604060002060009150905080600001805461024c90611a95565b80601f016020809104026020016040519081016040528092919081815260200182805461027890611a95565b80156102c55780601f1061029a576101008083540402835291602001916102c5565b820191906000526020600020905b8154815290600101906020018083116102a857829003601f168201915b5050505050908060010160009054906101000a900461ffff16908060020180546102ee90611a95565b80601f016020809104026020016040519081016040528092919081815260200182805461031a90611a95565b80156103675780601f1061033c57610100808354040283529160200191610367565b820191906000526020600020905b81548152906001019060200180831161034a57829003601f168201915b5050505050905083565b6000806000808473ffffffffffffffffffffffffffffffffffffffff1673ffffffffffffffffffffffffffffffffffffffff16815260200190815260200160002090507f0243ebf2371f2fee8cde45fc07c9fc46f83ec15e9ba9514cb6bf56369c27724b816000018260010160009054906101000a900461ffff16836002016040516103ff939291906118e0565b60405180910390a16001915050919050565b600080600160008473ffffffffffffffffffffffffffffffffffffffff1673ffffffffffffffffffffffffffffffffffffffff16815260200190815260200160002090507f653762ddd4ece03b4880d7053ae42e7c70694a7254a9c02b2529013232de8bd0816000018260010183600201846003018560040160009054906101000a900461ffff16866005018760060160009054906101000a900461ffff16886007016040516104c8989796959493929190611838565b60405180910390a16001915050919050565b6104e2611118565b60006002836040516104f491906116f7565b908152602001604051809103902060009054906101000a900473ffffffffffffffffffffffffffffffffffffffff169050600160008273ffffffffffffffffffffffffffffffffffffffff1673ffffffffffffffffffffffffffffffffffffffff1681526020019081526020016000206040518061010001604052908160008201805461058090611a95565b80601f01602080910402602001604051908101604052809291908181526020018280546105ac90611a95565b80156105f95780601f106105ce576101008083540402835291602001916105f9565b820191906000526020600020905b8154815290600101906020018083116105dc57829003601f168201915b5050505050815260200160018201805461061290611a95565b80601f016020809104026020016040519081016040528092919081815260200182805461063e90611a95565b801561068b5780601f106106605761010080835404028352916020019161068b565b820191906000526020600020905b81548152906001019060200180831161066e57829003601f168201915b505050505081526020016002820180546106a490611a95565b80601f01602080910402602001604051908101604052809291908181526020018280546106d090611a95565b801561071d5780601f106106f25761010080835404028352916020019161071d565b820191906000526020600020905b81548152906001019060200180831161070057829003601f168201915b5050505050815260200160038201805461073690611a95565b80601f016020809104026020016040519081016040528092919081815260200182805461076290611a95565b80156107af5780601f10610784576101008083540402835291602001916107af565b820191906000526020600020905b81548152906001019060200180831161079257829003601f168201915b505050505081526020016004820160009054906101000a900461ffff1661ffff1661ffff1681526020016005820180546107e890611a95565b80601f016020809104026020016040519081016040528092919081815260200182805461081490611a95565b80156108615780601f1061083657610100808354040283529160200191610861565b820191906000526020600020905b81548152906001019060200180831161084457829003601f168201915b505050505081526020016006820160009054906101000a900461ffff1661ffff1661ffff16815260200160078201805461089a90611a95565b80601f01602080910402602001604051908101604052809291908181526020018280546108c690611a95565b80156109135780601f106108e857610100808354040283529160200191610913565b820191906000526020600020905b8154815290600101906020018083116108f657829003601f168201915b505050505081525050915050919050565b600060405180606001604052808581526020018461ffff168152602001838152509050806000803373ffffffffffffffffffffffffffffffffffffffff1673ffffffffffffffffffffffffffffffffffffffff16815260200190815260200160002060008201518160000190805190602001906109a2929190611165565b5060208201518160010160006101000a81548161ffff021916908361ffff16021790555060408201518160020190805190602001906109e2929190611165565b5090505050505050565b60006040518061010001604052808a81526020018981526020018881526020018781526020018661ffff1681526020018581526020018461ffff16815260200183815250905080600160003373ffffffffffffffffffffffffffffffffffffffff1673ffffffffffffffffffffffffffffffffffffffff1681526020019081526020016000206000820151816000019080519060200190610a8e929190611165565b506020820151816001019080519060200190610aab929190611165565b506040820151816002019080519060200190610ac8929190611165565b506060820151816003019080519060200190610ae5929190611165565b5060808201518160040160006101000a81548161ffff021916908361ffff16021790555060a0820151816005019080519060200190610b25929190611165565b5060c08201518160060160006101000a81548161ffff021916908361ffff16021790555060e0820151816007019080519060200190610b65929190611165565b5090505033600289604051610b7a91906116f7565b908152602001604051809103902060006101000a81548173ffffffffffffffffffffffffffffffffffffffff021916908373ffffffffffffffffffffffffffffffffffffffff160217905550505050505050505050565b6001602052806000526040600020600091509050806000018054610bf490611a95565b80601f0160208091040260200160405190810160405280929190818152602001828054610c2090611a95565b8015610c6d5780601f10610c4257610100808354040283529160200191610c6d565b820191906000526020600020905b815481529060010190602001808311610c5057829003601f168201915b505050505090806001018054610c8290611a95565b80601f0160208091040260200160405190810160405280929190818152602001828054610cae90611a95565b8015610cfb5780601f10610cd057610100808354040283529160200191610cfb565b820191906000526020600020905b815481529060010190602001808311610cde57829003601f168201915b505050505090806002018054610d1090611a95565b80601f0160208091040260200160405190810160405280929190818152602001828054610d3c90611a95565b8015610d895780601f10610d5e57610100808354040283529160200191610d89565b820191906000526020600020905b815481529060010190602001808311610d6c57829003601f168201915b505050505090806003018054610d9e90611a95565b80601f0160208091040260200160405190810160405280929190818152602001828054610dca90611a95565b8015610e175780601f10610dec57610100808354040283529160200191610e17565b820191906000526020600020905b815481529060010190602001808311610dfa57829003601f168201915b5050505050908060040160009054906101000a900461ffff1690806005018054610e4090611a95565b80601f0160208091040260200160405190810160405280929190818152602001828054610e6c90611a95565b8015610eb95780601f10610e8e57610100808354040283529160200191610eb9565b820191906000526020600020905b815481529060010190602001808311610e9c57829003601f168201915b5050505050908060060160009054906101000a900461ffff1690806007018054610ee290611a95565b80601f0160208091040260200160405190810160405280929190818152602001828054610f0e90611a95565b8015610f5b5780601f10610f3057610100808354040283529160200191610f5b565b820191906000526020600020905b815481529060010190602001808311610f3e57829003601f168201915b5050505050905088565b60606000600160008473ffffffffffffffffffffffffffffffffffffffff1673ffffffffffffffffffffffffffffffffffffffff1681526020019081526020016000209050806001018054610fb990611a95565b80601f0160208091040260200160405190810160405280929190818152602001828054610fe590611a95565b80156110325780601f1061100757610100808354040283529160200191611032565b820191906000526020600020905b81548152906001019060200180831161101557829003601f168201915b5050505050915050919050565b606060008060008473ffffffffffffffffffffffffffffffffffffffff1673ffffffffffffffffffffffffffffffffffffffff168152602001908152602001600020905080600201805461109290611a95565b80601f01602080910402602001604051908101604052809291908181526020018280546110be90611a95565b801561110b5780601f106110e05761010080835404028352916020019161110b565b820191906000526020600020905b8154815290600101906020018083116110ee57829003601f168201915b5050505050915050919050565b60405180610100016040528060608152602001606081526020016060815260200160608152602001600061ffff16815260200160608152602001600061ffff168152602001606081525090565b82805461117190611a95565b90600052602060002090601f01602090048101928261119357600085556111da565b82601f106111ac57805160ff19168380011785556111da565b828001600101855582156111da579182015b828111156111d95782518255916020019190600101906111be565b5b5090506111e791906111eb565b5090565b5b808211156112045760008160009055506001016111ec565b5090565b600061121b61121684611978565b611947565b90508281526020810184848401111561123357600080fd5b61123e848285611a53565b509392505050565b60008135905061125581611b36565b92915050565b600082601f83011261126c57600080fd5b813561127c848260208601611208565b91505092915050565b60008135905061129481611b4d565b92915050565b6000602082840312156112ac57600080fd5b60006112ba84828501611246565b91505092915050565b6000602082840312156112d557600080fd5b600082013567ffffffffffffffff8111156112ef57600080fd5b6112fb8482850161125b565b91505092915050565b600080600080600080600080610100898b03121561132157600080fd5b600089013567ffffffffffffffff81111561133b57600080fd5b6113478b828c0161125b565b985050602089013567ffffffffffffffff81111561136457600080fd5b6113708b828c0161125b565b975050604089013567ffffffffffffffff81111561138d57600080fd5b6113998b828c0161125b565b965050606089013567ffffffffffffffff8111156113b657600080fd5b6113c28b828c0161125b565b95505060806113d38b828c01611285565b94505060a089013567ffffffffffffffff8111156113f057600080fd5b6113fc8b828c0161125b565b93505060c061140d8b828c01611285565b92505060e089013567ffffffffffffffff81111561142a57600080fd5b6114368b828c0161125b565b9150509295985092959890939650565b60008060006060848603121561145b57600080fd5b600084013567ffffffffffffffff81111561147557600080fd5b6114818682870161125b565b935050602061149286828701611285565b925050604084013567ffffffffffffffff8111156114af57600080fd5b6114bb8682870161125b565b9150509250925092565b6114ce81611a07565b82525050565b60006114df826119bd565b6114e981856119c8565b93506114f9818560208601611a62565b61150281611b25565b840191505092915050565b6000611518826119bd565b61152281856119d9565b9350611532818560208601611a62565b61153b81611b25565b840191505092915050565b6000611551826119bd565b61155b81856119ea565b935061156b818560208601611a62565b80840191505092915050565b6000815461158481611a95565b61158e81866119d9565b945060018216600081146115a957600181146115bb576115ee565b60ff19831686526020860193506115ee565b6115c4856119a8565b60005b838110156115e6578154818901526001820191506020810190506115c7565b808801955050505b50505092915050565b600061010083016000830151848203600086015261161582826114d4565b9150506020830151848203602086015261162f82826114d4565b9150506040830151848203604086015261164982826114d4565b9150506060830151848203606086015261166382826114d4565b915050608083015161167860808601826116ca565b5060a083015184820360a086015261169082826114d4565b91505060c08301516116a560c08601826116ca565b5060e083015184820360e08601526116bd82826114d4565b9150508091505092915050565b6116d381611a13565b82525050565b6116e281611a13565b82525050565b6116f181611a41565b82525050565b60006117038284611546565b915081905092915050565b600060208201905061172360008301846114c5565b92915050565b60006020820190508181036000830152611743818461150d565b905092915050565b6000610100820190508181036000830152611766818b61150d565b9050818103602083015261177a818a61150d565b9050818103604083015261178e818961150d565b905081810360608301526117a2818861150d565b90506117b160808301876116d9565b81810360a08301526117c3818661150d565b90506117d260c08301856116d9565b81810360e08301526117e4818461150d565b90509998505050505050505050565b6000606082019050818103600083015261180d818661150d565b905061181c60208301856116d9565b818103604083015261182e818461150d565b9050949350505050565b6000610100820190508181036000830152611853818b611577565b90508181036020830152611867818a611577565b9050818103604083015261187b8189611577565b9050818103606083015261188f8188611577565b905061189e60808301876116e8565b81810360a08301526118b08186611577565b90506118bf60c08301856116d9565b81810360e08301526118d18184611577565b90509998505050505050505050565b600060608201905081810360008301526118fa8186611577565b905061190960208301856116d9565b818103604083015261191b8184611577565b9050949350505050565b6000602082019050818103600083015261193f81846115f7565b905092915050565b6000604051905081810181811067ffffffffffffffff8211171561196e5761196d611af6565b5b8060405250919050565b600067ffffffffffffffff82111561199357611992611af6565b5b601f19601f8301169050602081019050919050565b60008190508160005260206000209050919050565b600081519050919050565b600082825260208201905092915050565b600082825260208201905092915050565b600081905092915050565b6000611a0082611a21565b9050919050565b60008115159050919050565b600061ffff82169050919050565b600073ffffffffffffffffffffffffffffffffffffffff82169050919050565b6000611a4c82611a13565b9050919050565b82818337600083830152505050565b60005b83811015611a80578082015181840152602081019050611a65565b83811115611a8f576000848401525b50505050565b60006002820490506001821680611aad57607f821691505b60208210811415611ac157611ac0611ac7565b5b50919050565b7f4e487b7100000000000000000000000000000000000000000000000000000000600052602260045260246000fd5b7f4e487b7100000000000000000000000000000000000000000000000000000000600052604160045260246000fd5b6000601f19601f8301169050919050565b611b3f816119f5565b8114611b4a57600080fd5b50565b611b5681611a13565b8114611b6157600080fd5b5056fea26469706673582212205dc9f49a024d849865493df2815e9670cd0777a430a418ce234ae9e491bbbb1864736f6c63430008000033",
  "immutableReferences": {},
  "source": "// SPDX-License-Identifier: MIT\r\npragma solidity ^0.8.0;\r\n\r\ncontract PandemicRecoverySystem {\r\n    // PATIENT Module\r\n    struct Patient {\r\n        string Pname;\r\n        uint16 age;\r\n        string symptom;\r\n    }\r\n    // Assign address to each patient\r\n    mapping(address => Patient) public patients;\r\n    event PatientDetails(string Pname, uint16 age, string symptom);\r\n\r\n    // SetPatient\r\n    function FillPatientDetails(\r\n        string memory _Pname,\r\n        uint16 _age,\r\n        string memory _symptom\r\n    ) external {\r\n        // Get each instance of Patient struct\r\n        Patient memory eachpatient = Patient(_Pname, _age, _symptom);\r\n        patients[msg.sender] = eachpatient;\r\n    }\r\n\r\n    function GetPatientSymptom(address _patientaddress)\r\n        external\r\n        view\r\n        returns (string memory)\r\n    {\r\n        // Return patient details stored at patient address\r\n        Patient storage patient1 = patients[_patientaddress];\r\n        return patient1.symptom;\r\n    }\r\n\r\n    function PatientAddress(address _patientaddress) external returns (bool) {\r\n        // Return patient details stored at patient address\r\n        Patient storage patient1 = patients[_patientaddress];\r\n        // Gives the patient details when input the address\r\n        emit PatientDetails(patient1.Pname, patient1.age, patient1.symptom);\r\n        return true;\r\n    }\r\n\r\n    // RECOVERER Module\r\n    struct Recoverer {\r\n        string Rname;\r\n        string Symptoms;\r\n        string HospitalName;\r\n        string HospitalLocation;\r\n        uint16 DaysForRecovery;\r\n        string TestUndergone;\r\n        uint16 AmtSpent;\r\n        string MedicationsTaken;\r\n    }\r\n    // Assign address to each recoverer\r\n    mapping(address => Recoverer) public recoverers;\r\n    event RecovererDetails(\r\n        string Rname,\r\n        string Symptoms,\r\n        string HospitalName,\r\n        string HospitalLocation,\r\n        uint256 DaysForRecovery,\r\n        string TestUndergone,\r\n        uint16 AmtSpent,\r\n        string MedicationsTaken\r\n    );\r\n\r\n    // SetRecoverer\r\n    function FillRecovererDetails(\r\n        string memory _Rname,\r\n        string memory _Symptom,\r\n        string memory _HospitalName,\r\n        string memory _HospitalLocation,\r\n        uint16 _DaysForRecovery,\r\n        string memory _TestUndergone,\r\n        uint16 _AmtSpent,\r\n        string memory _MedicationsTaken\r\n    ) external {\r\n        // Get each instance of Recoverer struct\r\n        Recoverer memory EachRecoverer = Recoverer(\r\n            _Rname,\r\n            _Symptom,\r\n            _HospitalName,\r\n            _HospitalLocation,\r\n            _DaysForRecovery,\r\n            _TestUndergone,\r\n            _AmtSpent,\r\n            _MedicationsTaken\r\n        );\r\n        recoverers[msg.sender] = EachRecoverer;\r\n        // Map the recoverer's symptom to their address\r\n        findTheDetail[_Symptom] = msg.sender;\r\n    }\r\n\r\n    function GetRecovererSymptom(address _RecovererAddress)\r\n        external\r\n        view\r\n        returns (string memory)\r\n    {\r\n        // Return Recoverer details stored at Recoverer Address\r\n        Recoverer storage Recoverer1 = recoverers[_RecovererAddress];\r\n        return Recoverer1.Symptoms;\r\n    }\r\n\r\n    function RecovererAddressIs(address _RecovererAddress)\r\n        external\r\n        returns (bool)\r\n    {\r\n        // Return Recoverer details stored at Recoverer address\r\n        Recoverer storage Recoverer1 = recoverers[_RecovererAddress];\r\n        // Gives the recoverer details when input the address\r\n        emit RecovererDetails(\r\n            Recoverer1.Rname,\r\n            Recoverer1.Symptoms,\r\n            Recoverer1.HospitalName,\r\n            Recoverer1.HospitalLocation,\r\n            Recoverer1.DaysForRecovery,\r\n            Recoverer1.TestUndergone,\r\n            Recoverer1.AmtSpent,\r\n            Recoverer1.MedicationsTaken\r\n        );\r\n        return true;\r\n    }\r\n\r\n    // Map Patient Symptom to Recover symptom and find the recovery details\r\n    mapping(string => address) findTheDetail;\r\n\r\n    function HowToRecoverDetails(string memory _symptom)\r\n        external\r\n        view\r\n        returns (Recoverer memory)\r\n    {\r\n        // Get the recoverer's address associated with the symptom\r\n        address recovererAddress = findTheDetail[_symptom];\r\n        // Return the recoverer details stored at the recoverer address\r\n        return recoverers[recovererAddress];\r\n    }\r\n}\r\n",
  "sourcePath": "D:\\Projects\\Pandemic Recovery System_Full\\contracts\\PandemicRecoverySystem.sol",
  "compiler": {
    "name": "solc",
    "version": "0.8.0+commit.c7dfd78e.Emscripten.clang"
  },
  "schemaVersion": "3.4.14",
  "updatedAt": "2023-07-04T06:05:36.711Z",
  "devdoc": {
    "kind": "dev",
    "methods": {},
    "version": 1
  },
  "userdoc": {
    "kind": "user",
    "methods": {},
    "version": 1
  }
}